:0200000027D007
:100050000001600EAD6F020EB16F400EB36F040170
:10006000CB972897C3973AEC00F0C3873AEC00F09F
:1000700032EF00F005011E0E006F1E0E016F1E0E06
:10008000026F000002530401D8A50BD005010153F3
:100090000401D8A509D0050100530401D8A507D053
:1000A000120005010207EDD705010107E8D7050198
:0400B0000007E3D78B
:020000040030CA
:100000008CEF3DFF9FFFFFFFFFFFFFFFFFFFFFFFA5
:10001000FFFFFFFFFFFFFFFFFFFFFFFFFFFFFFFFF0
:03002000FFFFFFE0
:00000001FF
